{
  "contractName": "ZombieHelper",
  "abi": [
    {
      "constant": false,
      "inputs": [
        {
          "name": "_zombieId",
          "type": "uint256"
        },
        {
          "name": "_kittyId",
          "type": "uint256"
        }
      ],
      "name": "feedOnKitty",
      "outputs": [],
      "payable": false,
      "stateMutability": "nonpayable",
      "type": "function"
    },
    {
      "constant": true,
      "inputs": [
        {
          "name": "",
          "type": "uint256"
        }
      ],
      "name": "zombies",
      "outputs": [
        {
          "name": "name",
          "type": "string"
        },
        {
          "name": "dna",
          "type": "uint256"
        },
        {
          "name": "level",
          "type": "uint32"
        },
        {
          "name": "readyTime",
          "type": "uint32"
        },
        {
          "name": "winCount",
          "type": "uint16"
        },
        {
          "name": "lossCount",
          "type": "uint16"
        }
      ],
      "payable": false,
      "stateMutability": "view",
      "type": "function"
    },
    {
      "constant": true,
      "inputs": [
        {
          "name": "",
          "type": "uint256"
        }
      ],
      "name": "zombieToOwner",
      "outputs": [
        {
          "name": "",
          "type": "address"
        }
      ],
      "payable": false,
      "stateMutability": "view",
      "type": "function"
    },
    {
      "constant": false,
      "inputs": [
        {
          "name": "_address",
          "type": "address"
        }
      ],
      "name": "setKittyContractAddress",
      "outputs": [],
      "payable": false,
      "stateMutability": "nonpayable",
      "type": "function"
    },
    {
      "constant": false,
      "inputs": [],
      "name": "renounceOwnership",
      "outputs": [],
      "payable": false,
      "stateMutability": "nonpayable",
      "type": "function"
    },
    {
      "constant": false,
      "inputs": [
        {
          "name": "_name",
          "type": "string"
        }
      ],
      "name": "createRandomZombie",
      "outputs": [],
      "payable": false,
      "stateMutability": "nonpayable",
      "type": "function"
    },
    {
      "constant": true,
      "inputs": [],
      "name": "owner",
      "outputs": [
        {
          "name": "",
          "type": "address"
        }
      ],
      "payable": false,
      "stateMutability": "view",
      "type": "function"
    },
    {
      "constant": true,
      "inputs": [],
      "name": "isOwner",
      "outputs": [
        {
          "name": "",
          "type": "bool"
        }
      ],
      "payable": false,
      "stateMutability": "view",
      "type": "function"
    },
    {
      "constant": false,
      "inputs": [
        {
          "name": "newOwner",
          "type": "address"
        }
      ],
      "name": "transferOwnership",
      "outputs": [],
      "payable": false,
      "stateMutability": "nonpayable",
      "type": "function"
    },
    {
      "anonymous": false,
      "inputs": [
        {
          "indexed": false,
          "name": "zombieId",
          "type": "uint256"
        },
        {
          "indexed": false,
          "name": "name",
          "type": "string"
        },
        {
          "indexed": false,
          "name": "dna",
          "type": "uint256"
        }
      ],
      "name": "NewZombie",
      "type": "event"
    },
    {
      "anonymous": false,
      "inputs": [
        {
          "indexed": true,
          "name": "previousOwner",
          "type": "address"
        },
        {
          "indexed": true,
          "name": "newOwner",
          "type": "address"
        }
      ],
      "name": "OwnershipTransferred",
      "type": "event"
    },
    {
      "constant": false,
      "inputs": [],
      "name": "withdraw",
      "outputs": [],
      "payable": false,
      "stateMutability": "nonpayable",
      "type": "function"
    },
    {
      "constant": false,
      "inputs": [
        {
          "name": "_fee",
          "type": "uint256"
        }
      ],
      "name": "setLevelUpFee",
      "outputs": [],
      "payable": false,
      "stateMutability": "nonpayable",
      "type": "function"
    },
    {
      "constant": false,
      "inputs": [
        {
          "name": "_zombieId",
          "type": "uint256"
        }
      ],
      "name": "levelUp",
      "outputs": [],
      "payable": true,
      "stateMutability": "payable",
      "type": "function"
    },
    {
      "constant": false,
      "inputs": [
        {
          "name": "_zombieId",
          "type": "uint256"
        }
      ],
      "name": "levelDown",
      "outputs": [],
      "payable": true,
      "stateMutability": "payable",
      "type": "function"
    },
    {
      "constant": false,
      "inputs": [
        {
          "name": "_zombieId",
          "type": "uint256"
        },
        {
          "name": "_newName",
          "type": "string"
        }
      ],
      "name": "changeName",
      "outputs": [],
      "payable": false,
      "stateMutability": "nonpayable",
      "type": "function"
    },
    {
      "constant": false,
      "inputs": [
        {
          "name": "_zombieId",
          "type": "uint256"
        },
        {
          "name": "_newDna",
          "type": "uint256"
        }
      ],
      "name": "changeDna",
      "outputs": [],
      "payable": false,
      "stateMutability": "nonpayable",
      "type": "function"
    },
    {
      "constant": true,
      "inputs": [
        {
          "name": "_owner",
          "type": "address"
        }
      ],
      "name": "getZombiesByOwner",
      "outputs": [
        {
          "name": "",
          "type": "uint256[]"
        }
      ],
      "payable": false,
      "stateMutability": "view",
      "type": "function"
    }
  ],
  "bytecode": "0x60806040526010600155600154600a0a6002556201518060035566038d7ea4c68000600855670de0b6b3a7640000600955336000806101000a81548173ffffffffffffffffffffffffffffffffffffffff021916908373ffffffffffffffffffffffffffffffffffffffff1602179055506000809054906101000a900473ffffffffffffffffffffffffffffffffffffffff1673ffffffffffffffffffffffffffffffffffffffff16600073ffffffffffffffffffffffffffffffffffffffff167f8be0079c531659141344cd1fd0a4f28419497f9722a3daafe3b4186f6b6457e060405160405180910390a36118a4806100fb6000396000f3006080604052600436106100e6576000357c0100000000000000000000000000000000000000000000000000000000900463ffffffff1680630ce90ec2146100eb57806317a7f4cc1461010b5780632052465e146101425780633ccfd60b146102335780634412e1041461024a578063528b7b8f146102e25780635f4623f11461034f5780635faf288014610392578063715018a6146103c95780637bff0a01146103e05780638da5cb5b146104495780638f32d59b146104a0578063c39cbef1146104cf578063ccf670f814610514578063e14d2cee14610541578063f2fde38b14610561575b600080fd5b610109600480360381019080803590602001909291905050506105a4565b005b34801561011757600080fd5b50610140600480360381019080803590602001909291908035906020019092919050505061063f565b005b34801561014e57600080fd5b5061016d600480360381019080803590602001909291905050506107e8565b60405180806020018781526020018663ffffffff1663ffffffff1681526020018563ffffffff1663ffffffff1681526020018461ffff1661ffff1681526020018361ffff1661ffff168152602001828103825288818151815260200191508051906020019080838360005b838110156101f35780820151818401526020810190506101d8565b50505050905090810190601f1680156102205780820380516001836020036101000a031916815260200191505b5097505050505050505060405180910390f35b34801561023f57600080fd5b50610248610907565b005b34801561025657600080fd5b5061028b600480360381019080803573ffffffffffffffffffffffffffffffffffffffff169060200190929190505050610987565b6040518080602001828103825283818151815260200191508051906020019060200280838360005b838110156102ce5780820151818401526020810190506102b3565b505050509050019250505060405180910390f35b3480156102ee57600080fd5b5061030d60048036038101908080359060200190929190505050610ab9565b604051808273ffffffffffffffffffffffffffffffffffffffff1673ffffffffffffffffffffffffffffffffffffffff16815260200191505060405180910390f35b34801561035b57600080fd5b50610390600480360381019080803573ffffffffffffffffffffffffffffffffffffffff169060200190929190505050610aec565b005b34801561039e57600080fd5b506103c76004803603810190808035906020019092919080359060200190929190505050610b43565b005b3480156103d557600080fd5b506103de610c25565b005b3480156103ec57600080fd5b50610447600480360381019080803590602001908201803590602001908080601f0160208091040260200160405190810160405280939291908181526020018383808284378201915050505050509192919290505050610cf7565b005b34801561045557600080fd5b5061045e610d23565b604051808273ffffffffffffffffffffffffffffffffffffffff1673ffffffffffffffffffffffffffffffffffffffff16815260200191505060405180910390f35b3480156104ac57600080fd5b506104b5610d4c565b604051808215151515815260200191505060405180910390f35b3480156104db57600080fd5b5061051260048036038101908080359060200190929190803590602001908201803590602001919091929391929390505050610da3565b005b34801561052057600080fd5b5061053f60048036038101908080359060200190929190505050610e91565b005b61055f60048036038101908080359060200190929190505050610eae565b005b34801561056d57600080fd5b506105a2600480360381019080803573ffffffffffffffffffffffffffffffffffffffff169060200190929190505050610f33565b005b600854341415156105b457600080fd5b6105fe60016004838154811015156105c857fe5b906000526020600020906003020160020160009054906101000a900463ffffffff1663ffffffff16610f5290919063ffffffff16565b60048281548110151561060d57fe5b906000526020600020906003020160020160006101000a81548163ffffffff021916908363ffffffff16021790555050565b6000600760009054906101000a900473ffffffffffffffffffffffffffffffffffffffff1673ffffffffffffffffffffffffffffffffffffffff1663e98b7f4d836040518263ffffffff167c01000000000000000000000000000000000000000000000000000000000281526004018082815260200191505061014060405180830381600087803b1580156106d357600080fd5b505af11580156106e7573d6000803e3d6000fd5b505050506040513d6101408110156106fe57600080fd5b8101908080519060200190929190805190602001909291908051906020019092919080519060200190929190805190602001909291908051906020019092919080519060200190929190805190602001909291908051906020019092919080519060200190929190505050909192939495969798509091929394959697509091929394959650909192939495509091929394509091929350909192509091509050809150506107e383826040805190810160405280600581526020017f6b69747479000000000000000000000000000000000000000000000000000000815250610f7c565b505050565b6004818154811015156107f757fe5b9060005260206000209060030201600091509050806000018054600181600116156101000203166002900480601f0160208091040260200160405190810160405280929190818152602001828054600181600116156101000203166002900480156108a35780601f10610878576101008083540402835291602001916108a3565b820191906000526020600020905b81548152906001019060200180831161088657829003601f168201915b5050505050908060010154908060020160009054906101000a900463ffffffff16908060020160049054906101000a900463ffffffff16908060020160089054906101000a900461ffff169080600201600a9054906101000a900461ffff16905086565b6000610911610d4c565b151561091c57600080fd5b610924610d23565b90508073ffffffffffffffffffffffffffffffffffffffff166108fc3073ffffffffffffffffffffffffffffffffffffffff16319081150290604051600060405180830381858888f19350505050158015610983573d6000803e3d6000fd5b5050565b606080600080600660008673ffffffffffffffffffffffffffffffffffffffff1673ffffffffffffffffffffffffffffffffffffffff168152602001908152602001600020546040519080825280602002602001820160405280156109fb5781602001602082028038833980820191505090505b50925060009150600090505b600480549050811015610aae578473ffffffffffffffffffffffffffffffffffffffff166005600083815260200190815260200160002060009054906101000a900473ffffffffffffffffffffffffffffffffffffffff1673ffffffffffffffffffffffffffffffffffffffff161415610aa157808383815181101515610a8a57fe5b906020019060200201818152505081806001019250505b8080600101915050610a07565b829350505050919050565b60056020528060005260406000206000915054906101000a900473ffffffffffffffffffffffffffffffffffffffff1681565b610af4610d4c565b1515610aff57600080fd5b80600760006101000a81548173ffffffffffffffffffffffffffffffffffffffff021916908373ffffffffffffffffffffffffffffffffffffffff16021790555050565b60148281600482815481101515610b5657fe5b906000526020600020906003020160020160009054906101000a900463ffffffff1663ffffffff1610151515610b8b57600080fd5b836005600082815260200190815260200160002060009054906101000a900473ffffffffffffffffffffffffffffffffffffffff1673ffffffffffffffffffffffffffffffffffffffff163373ffffffffffffffffffffffffffffffffffffffff16141515610bf957600080fd5b83600486815481101515610c0957fe5b9060005260206000209060030201600101819055505050505050565b610c2d610d4c565b1515610c3857600080fd5b600073ffffffffffffffffffffffffffffffffffffffff166000809054906101000a900473ffffffffffffffffffffffffffffffffffffffff1673ffffffffffffffffffffffffffffffffffffffff167f8be0079c531659141344cd1fd0a4f28419497f9722a3daafe3b4186f6b6457e060405160405180910390a360008060006101000a81548173ffffffffffffffffffffffffffffffffffffffff021916908373ffffffffffffffffffffffffffffffffffffffff160217905550565b6000610d0282611229565b9050606481811515610d1057fe5b0681039050610d1f8282611317565b5050565b60008060009054906101000a900473ffffffffffffffffffffffffffffffffffffffff16905090565b60008060009054906101000a900473ffffffffffffffffffffffffffffffffffffffff1673ffffffffffffffffffffffffffffffffffffffff163373ffffffffffffffffffffffffffffffffffffffff1614905090565b60028381600482815481101515610db657fe5b906000526020600020906003020160020160009054906101000a900463ffffffff1663ffffffff1610151515610deb57600080fd5b846005600082815260200190815260200160002060009054906101000a900473ffffffffffffffffffffffffffffffffffffffff1673ffffffffffffffffffffffffffffffffffffffff163373ffffffffffffffffffffffffffffffffffffffff16141515610e5957600080fd5b8484600488815481101515610e6a57fe5b90600052602060002090600302016000019190610e88929190611753565b50505050505050565b610e99610d4c565b1515610ea457600080fd5b8060088190555050565b60095434141515610ebe57600080fd5b6001600482815481101515610ecf57fe5b906000526020600020906003020160020160009054906101000a900463ffffffff1603600482815481101515610f0157fe5b906000526020600020906003020160020160006101000a81548163ffffffff021916908363ffffffff16021790555050565b610f3b610d4c565b1515610f4657600080fd5b610f4f816115ea565b50565b60008082840190508363ffffffff168163ffffffff1610151515610f7257fe5b8091505092915050565b600080846005600082815260200190815260200160002060009054906101000a900473ffffffffffffffffffffffffffffffffffffffff1673ffffffffffffffffffffffffffffffffffffffff163373ffffffffffffffffffffffffffffffffffffffff16141515610fed57600080fd5b600486815481101515610ffc57fe5b90600052602060002090600302019250611015836116e4565b151561102057600080fd5b6002548581151561102d57fe5b06945060028584600101540181151561104257fe5b04915060405160200180807f6b6974747900000000000000000000000000000000000000000000000000000081525060050190506040516020818303038152906040526040518082805190602001908083835b6020831015156110ba5780518252602082019150602081019050602083039250611095565b6001836020036101000a038019825116818451168082178552505050505050905001915050604051809103902060001916846040516020018082805190602001908083835b60208310151561112457805182526020820191506020810190506020830392506110ff565b6001836020036101000a0380198251168184511680821785525050505050509050019150506040516020818303038152906040526040518082805190602001908083835b60208310151561118d5780518252602082019150602081019050602083039250611168565b6001836020036101000a03801982511681845116808217855250505050505090500191505060405180910390206000191614156111d95760636064838115156111d257fe5b0683030191505b6112186040805190810160405280600681526020017f4e6f4e616d65000000000000000000000000000000000000000000000000000081525083611317565b6112218361170b565b505050505050565b600080826040516020018082805190602001908083835b6020831015156112655780518252602082019150602081019050602083039250611240565b6001836020036101000a0380198251168184511680821785525050505050509050019150506040516020818303038152906040526040518082805190602001908083835b6020831015156112ce57805182526020820191506020810190506020830392506112a9565b6001836020036101000a03801982511681845116808217855250505050505090500191505060405180910390206001900490506002548181151561130e57fe5b06915050919050565b60006001600460c060405190810160405280868152602001858152602001600163ffffffff168152602001600354420163ffffffff168152602001600061ffff168152602001600061ffff168152509080600181540180825580915050906001820390600052602060002090600302016000909192909190915060008201518160000190805190602001906113ad9291906117d3565b506020820151816001015560408201518160020160006101000a81548163ffffffff021916908363ffffffff16021790555060608201518160020160046101000a81548163ffffffff021916908363ffffffff16021790555060808201518160020160086101000a81548161ffff021916908361ffff16021790555060a082015181600201600a6101000a81548161ffff021916908361ffff1602179055505050039050336005600083815260200190815260200160002060006101000a81548173ffffffffffffffffffffffffffffffffffffffff021916908373ffffffffffffffffffffffffffffffffffffffff1602179055506114f66001600660003373ffffffffffffffffffffffffffffffffffffffff1673ffffffffffffffffffffffffffffffffffffffff1681526020019081526020016000205461173590919063ffffffff16565b600660003373ffffffffffffffffffffffffffffffffffffffff1673ffffffffffffffffffffffffffffffffffffffff168152602001908152602001600020819055507f88f026aacbbecc90c18411df4b1185fd8d9be2470f1962f192bf84a27d0704b78184846040518084815260200180602001838152602001828103825284818151815260200191508051906020019080838360005b838110156115a957808201518184015260208101905061158e565b50505050905090810190601f1680156115d65780820380516001836020036101000a031916815260200191505b5094505050505060405180910390a1505050565b600073ffffffffffffffffffffffffffffffffffffffff168173ffffffffffffffffffffffffffffffffffffffff161415151561162657600080fd5b8073ffffffffffffffffffffffffffffffffffffffff166000809054906101000a900473ffffffffffffffffffffffffffffffffffffffff1673ffffffffffffffffffffffffffffffffffffffff167f8be0079c531659141344cd1fd0a4f28419497f9722a3daafe3b4186f6b6457e060405160405180910390a3806000806101000a81548173ffffffffffffffffffffffffffffffffffffffff021916908373ffffffffffffffffffffffffffffffffffffffff16021790555050565b6000428260020160049054906101000a900463ffffffff1663ffffffff1611159050919050565b60035442018160020160046101000a81548163ffffffff021916908363ffffffff16021790555050565b600080828401905083811015151561174957fe5b8091505092915050565b828054600181600116156101000203166002900490600052602060002090601f016020900481019282601f1061179457803560ff19168380011785556117c2565b828001600101855582156117c2579182015b828111156117c15782358255916020019190600101906117a6565b5b5090506117cf9190611853565b5090565b828054600181600116156101000203166002900490600052602060002090601f016020900481019282601f1061181457805160ff1916838001178555611842565b82800160010185558215611842579182015b82811115611841578251825591602001919060010190611826565b5b50905061184f9190611853565b5090565b61187591905b80821115611871576000816000905550600101611859565b5090565b905600a165627a7a7230582057cf5f02c576d8586089d9d35493b48173a736b09792c534db554ee24e199e3a0029",
  "source": "pragma solidity ^0.4.25;\r\n\r\nimport \"./zombiefeeding.sol\";\r\n\r\ncontract ZombieHelper is ZombieFeeding {\r\n    uint levelUpFee = 0.001 ether;\r\n    uint levelDownFee = 1 ether;\r\n\r\n    modifier aboveLevel(uint _level, uint _zombieId) {\r\n        require(zombies[_zombieId].level >= _level);\r\n        _;\r\n    }\r\n\r\n    function withdraw() external onlyOwner {\r\n        address _owner = owner();\r\n        _owner.transfer(address(this).balance);\r\n    }\r\n\r\n    function setLevelUpFee(uint _fee) external onlyOwner {\r\n        levelUpFee = _fee;\r\n    }\r\n\r\n    function levelUp(uint _zombieId) external payable {\r\n        require(msg.value == levelUpFee);\r\n        zombies[_zombieId].level = zombies[_zombieId].level.add(1);\r\n    }\r\n    function levelDown(uint _zombieId) external payable {\r\n        require(msg.value == levelDownFee);\r\n        zombies[_zombieId].level = zombies[_zombieId].level - 1;\r\n    }\r\n\r\n    function changeName(\r\n        uint _zombieId,\r\n        string _newName\r\n    ) external aboveLevel(2, _zombieId) onlyOwnerOf(_zombieId) {\r\n        zombies[_zombieId].name = _newName;\r\n    }\r\n\r\n    function changeDna(\r\n        uint _zombieId,\r\n        uint _newDna\r\n    ) external aboveLevel(20, _zombieId) onlyOwnerOf(_zombieId) {\r\n        zombies[_zombieId].dna = _newDna;\r\n    }\r\n\r\n    function getZombiesByOwner(address _owner) external view returns (uint[]) {\r\n        uint[] memory result = new uint[](ownerZombieCount[_owner]);\r\n        uint counter = 0;\r\n        for (uint i = 0; i < zombies.length; i++) {\r\n            if (zombieToOwner[i] == _owner) {\r\n                result[counter] = i;\r\n                counter++;\r\n            }\r\n        }\r\n        return result;\r\n    }\r\n}\r\n",
  "sourcePath": "E:\\ADV_Mid_Final\\contracts\\zombiehelper.sol",
  "compiler": {
    "name": "solc",
    "version": "0.4.25+commit.59dbf8f1.Emscripten.clang"
  },
  "schemaVersion": "3.4.16",
  "updatedAt": "2024-03-18T00:07:55.163Z",
  "networkType": "ethereum",
  "devdoc": {
    "methods": {
      "isOwner()": {
        "return": "true if `msg.sender` is the owner of the contract.\r"
      },
      "owner()": {
        "return": "the address of the owner.\r"
      },
      "renounceOwnership()": {
        "details": "Allows the current owner to relinquish control of the contract.\r"
      },
      "transferOwnership(address)": {
        "details": "Allows the current owner to transfer control of the contract to a newOwner.\r",
        "params": {
          "newOwner": "The address to transfer ownership to.\r"
        }
      }
    }
  },
  "userdoc": {
    "methods": {
      "renounceOwnership()": {
        "notice": "Renouncing to ownership will leave the contract without an owner.\r It will not be possible to call the functions with the `onlyOwner`\r modifier anymore.\r"
      }
    }
  }
}