{
  "contractName": "ZombieOwnership",
  "abi": [
    {
      "constant": false,
      "inputs": [
        {
          "name": "_zombieId",
          "type": "uint256"
        }
      ],
      "name": "levelUp",
      "outputs": [],
      "payable": true,
      "stateMutability": "payable",
      "type": "function"
    },
    {
      "constant": false,
      "inputs": [
        {
          "name": "_zombieId",
          "type": "uint256"
        },
        {
          "name": "_kittyId",
          "type": "uint256"
        }
      ],
      "name": "feedOnKitty",
      "outputs": [],
      "payable": false,
      "stateMutability": "nonpayable",
      "type": "function"
    },
    {
      "constant": true,
      "inputs": [
        {
          "name": "",
          "type": "uint256"
        }
      ],
      "name": "zombies",
      "outputs": [
        {
          "name": "name",
          "type": "string"
        },
        {
          "name": "dna",
          "type": "uint256"
        },
        {
          "name": "level",
          "type": "uint32"
        },
        {
          "name": "readyTime",
          "type": "uint32"
        },
        {
          "name": "winCount",
          "type": "uint16"
        },
        {
          "name": "lossCount",
          "type": "uint16"
        }
      ],
      "payable": false,
      "stateMutability": "view",
      "type": "function"
    },
    {
      "constant": false,
      "inputs": [],
      "name": "withdraw",
      "outputs": [],
      "payable": false,
      "stateMutability": "nonpayable",
      "type": "function"
    },
    {
      "constant": true,
      "inputs": [
        {
          "name": "_owner",
          "type": "address"
        }
      ],
      "name": "getZombiesByOwner",
      "outputs": [
        {
          "name": "",
          "type": "uint256[]"
        }
      ],
      "payable": false,
      "stateMutability": "view",
      "type": "function"
    },
    {
      "constant": true,
      "inputs": [
        {
          "name": "",
          "type": "uint256"
        }
      ],
      "name": "zombieToOwner",
      "outputs": [
        {
          "name": "",
          "type": "address"
        }
      ],
      "payable": false,
      "stateMutability": "view",
      "type": "function"
    },
    {
      "constant": false,
      "inputs": [
        {
          "name": "_address",
          "type": "address"
        }
      ],
      "name": "setKittyContractAddress",
      "outputs": [],
      "payable": false,
      "stateMutability": "nonpayable",
      "type": "function"
    },
    {
      "constant": false,
      "inputs": [
        {
          "name": "_zombieId",
          "type": "uint256"
        },
        {
          "name": "_newDna",
          "type": "uint256"
        }
      ],
      "name": "changeDna",
      "outputs": [],
      "payable": false,
      "stateMutability": "nonpayable",
      "type": "function"
    },
    {
      "constant": false,
      "inputs": [],
      "name": "renounceOwnership",
      "outputs": [],
      "payable": false,
      "stateMutability": "nonpayable",
      "type": "function"
    },
    {
      "constant": false,
      "inputs": [
        {
          "name": "_name",
          "type": "string"
        }
      ],
      "name": "createRandomZombie",
      "outputs": [],
      "payable": false,
      "stateMutability": "nonpayable",
      "type": "function"
    },
    {
      "constant": true,
      "inputs": [],
      "name": "owner",
      "outputs": [
        {
          "name": "",
          "type": "address"
        }
      ],
      "payable": false,
      "stateMutability": "view",
      "type": "function"
    },
    {
      "constant": true,
      "inputs": [],
      "name": "isOwner",
      "outputs": [
        {
          "name": "",
          "type": "bool"
        }
      ],
      "payable": false,
      "stateMutability": "view",
      "type": "function"
    },
    {
      "constant": false,
      "inputs": [
        {
          "name": "_zombieId",
          "type": "uint256"
        },
        {
          "name": "_newName",
          "type": "string"
        }
      ],
      "name": "changeName",
      "outputs": [],
      "payable": false,
      "stateMutability": "nonpayable",
      "type": "function"
    },
    {
      "constant": false,
      "inputs": [
        {
          "name": "_fee",
          "type": "uint256"
        }
      ],
      "name": "setLevelUpFee",
      "outputs": [],
      "payable": false,
      "stateMutability": "nonpayable",
      "type": "function"
    },
    {
      "constant": false,
      "inputs": [
        {
          "name": "_zombieId",
          "type": "uint256"
        }
      ],
      "name": "levelDown",
      "outputs": [],
      "payable": true,
      "stateMutability": "payable",
      "type": "function"
    },
    {
      "constant": false,
      "inputs": [
        {
          "name": "_zombieId",
          "type": "uint256"
        },
        {
          "name": "_targetId",
          "type": "uint256"
        }
      ],
      "name": "attack",
      "outputs": [],
      "payable": false,
      "stateMutability": "nonpayable",
      "type": "function"
    },
    {
      "constant": false,
      "inputs": [
        {
          "name": "newOwner",
          "type": "address"
        }
      ],
      "name": "transferOwnership",
      "outputs": [],
      "payable": false,
      "stateMutability": "nonpayable",
      "type": "function"
    },
    {
      "anonymous": false,
      "inputs": [
        {
          "indexed": true,
          "name": "_from",
          "type": "address"
        },
        {
          "indexed": true,
          "name": "_to",
          "type": "address"
        },
        {
          "indexed": true,
          "name": "_tokenId",
          "type": "uint256"
        }
      ],
      "name": "Transfer",
      "type": "event"
    },
    {
      "anonymous": false,
      "inputs": [
        {
          "indexed": true,
          "name": "_owner",
          "type": "address"
        },
        {
          "indexed": true,
          "name": "_approved",
          "type": "address"
        },
        {
          "indexed": true,
          "name": "_tokenId",
          "type": "uint256"
        }
      ],
      "name": "Approval",
      "type": "event"
    },
    {
      "anonymous": false,
      "inputs": [
        {
          "indexed": false,
          "name": "zombieId",
          "type": "uint256"
        },
        {
          "indexed": false,
          "name": "name",
          "type": "string"
        },
        {
          "indexed": false,
          "name": "dna",
          "type": "uint256"
        }
      ],
      "name": "NewZombie",
      "type": "event"
    },
    {
      "anonymous": false,
      "inputs": [
        {
          "indexed": true,
          "name": "previousOwner",
          "type": "address"
        },
        {
          "indexed": true,
          "name": "newOwner",
          "type": "address"
        }
      ],
      "name": "OwnershipTransferred",
      "type": "event"
    },
    {
      "constant": true,
      "inputs": [
        {
          "name": "_owner",
          "type": "address"
        }
      ],
      "name": "balanceOf",
      "outputs": [
        {
          "name": "",
          "type": "uint256"
        }
      ],
      "payable": false,
      "stateMutability": "view",
      "type": "function"
    },
    {
      "constant": true,
      "inputs": [
        {
          "name": "_tokenId",
          "type": "uint256"
        }
      ],
      "name": "ownerOf",
      "outputs": [
        {
          "name": "",
          "type": "address"
        }
      ],
      "payable": false,
      "stateMutability": "view",
      "type": "function"
    },
    {
      "constant": false,
      "inputs": [
        {
          "name": "_from",
          "type": "address"
        },
        {
          "name": "_to",
          "type": "address"
        },
        {
          "name": "_tokenId",
          "type": "uint256"
        }
      ],
      "name": "transferFrom",
      "outputs": [],
      "payable": true,
      "stateMutability": "payable",
      "type": "function"
    },
    {
      "constant": false,
      "inputs": [
        {
          "name": "_approved",
          "type": "address"
        },
        {
          "name": "_tokenId",
          "type": "uint256"
        }
      ],
      "name": "approve",
      "outputs": [],
      "payable": true,
      "stateMutability": "payable",
      "type": "function"
    }
  ],
  "bytecode": "0x60806040526010600155600154600a0a6002556201518060035566038d7ea4c68000600855670de0b6b3a76400006009556000600a556046600b55336000806101000a81548173ffffffffffffffffffffffffffffffffffffffff021916908373ffffffffffffffffffffffffffffffffffffffff1602179055506000809054906101000a900473ffffffffffffffffffffffffffffffffffffffff1673ffffffffffffffffffffffffffffffffffffffff16600073ffffffffffffffffffffffffffffffffffffffff167f8be0079c531659141344cd1fd0a4f28419497f9722a3daafe3b4186f6b6457e060405160405180910390a36122b5806101056000396000f30060806040526004361061011d576000357c0100000000000000000000000000000000000000000000000000000000900463ffffffff168063095ea7b3146101225780630ce90ec21461016257806317a7f4cc146101825780632052465e146101b957806323b872dd146102aa5780633ccfd60b1461030a5780634412e10414610321578063528b7b8f146103b95780635f4623f1146104265780635faf2880146104695780636352211e146104a057806370a082311461050d578063715018a6146105645780637bff0a011461057b5780638da5cb5b146105e45780638f32d59b1461063b578063c39cbef11461066a578063ccf670f8146106af578063e14d2cee146106dc578063e1fa7638146106fc578063f2fde38b14610733575b600080fd5b610160600480360381019080803573ffffffffffffffffffffffffffffffffffffffff16906020019092919080359060200190929190505050610776565b005b61018060048036038101908080359060200190929190505050610896565b005b34801561018e57600080fd5b506101b76004803603810190808035906020019092919080359060200190929190505050610931565b005b3480156101c557600080fd5b506101e460048036038101908080359060200190929190505050610ada565b60405180806020018781526020018663ffffffff1663ffffffff1681526020018563ffffffff1663ffffffff1681526020018461ffff1661ffff1681526020018361ffff1661ffff168152602001828103825288818151815260200191508051906020019080838360005b8381101561026a57808201518184015260208101905061024f565b50505050905090810190601f1680156102975780820380516001836020036101000a031916815260200191505b5097505050505050505060405180910390f35b610308600480360381019080803573ffffffffffffffffffffffffffffffffffffffff169060200190929190803573ffffffffffffffffffffffffffffffffffffffff16906020019092919080359060200190929190505050610bf9565b005b34801561031657600080fd5b5061031f610cdf565b005b34801561032d57600080fd5b50610362600480360381019080803573ffffffffffffffffffffffffffffffffffffffff169060200190929190505050610d5f565b6040518080602001828103825283818151815260200191508051906020019060200280838360005b838110156103a557808201518184015260208101905061038a565b505050509050019250505060405180910390f35b3480156103c557600080fd5b506103e460048036038101908080359060200190929190505050610e91565b604051808273ffffffffffffffffffffffffffffffffffffffff1673ffffffffffffffffffffffffffffffffffffffff16815260200191505060405180910390f35b34801561043257600080fd5b50610467600480360381019080803573ffffffffffffffffffffffffffffffffffffffff169060200190929190505050610ec4565b005b34801561047557600080fd5b5061049e6004803603810190808035906020019092919080359060200190929190505050610f1b565b005b3480156104ac57600080fd5b506104cb60048036038101908080359060200190929190505050610ffd565b604051808273ffffffffffffffffffffffffffffffffffffffff1673ffffffffffffffffffffffffffffffffffffffff16815260200191505060405180910390f35b34801561051957600080fd5b5061054e600480360381019080803573ffffffffffffffffffffffffffffffffffffffff16906020019092919050505061103a565b6040518082815260200191505060405180910390f35b34801561057057600080fd5b50610579611083565b005b34801561058757600080fd5b506105e2600480360381019080803590602001908201803590602001908080601f0160208091040260200160405190810160405280939291908181526020018383808284378201915050505050509192919290505050611155565b005b3480156105f057600080fd5b506105f9611181565b604051808273ffffffffffffffffffffffffffffffffffffffff1673ffffffffffffffffffffffffffffffffffffffff16815260200191505060405180910390f35b34801561064757600080fd5b506106506111aa565b604051808215151515815260200191505060405180910390f35b34801561067657600080fd5b506106ad60048036038101908080359060200190929190803590602001908201803590602001919091929391929390505050611201565b005b3480156106bb57600080fd5b506106da600480360381019080803590602001909291905050506112ef565b005b6106fa6004803603810190808035906020019092919050505061130c565b005b34801561070857600080fd5b506107316004803603810190808035906020019092919080359060200190929190505050611391565b005b34801561073f57600080fd5b50610774600480360381019080803573ffffffffffffffffffffffffffffffffffffffff169060200190929190505050611624565b005b806005600082815260200190815260200160002060009054906101000a900473ffffffffffffffffffffffffffffffffffffffff1673ffffffffffffffffffffffffffffffffffffffff163373ffffffffffffffffffffffffffffffffffffffff161415156107e457600080fd5b82600c600084815260200190815260200160002060006101000a81548173ffffffffffffffffffffffffffffffffffffffff021916908373ffffffffffffffffffffffffffffffffffffffff160217905550818373ffffffffffffffffffffffffffffffffffffffff163373ffffffffffffffffffffffffffffffffffffffff167f8c5be1e5ebec7d5bd14f71427d1e84f3dd0314c0f7b2291e5b200ac8c7c3b92560405160405180910390a4505050565b600854341415156108a657600080fd5b6108f060016004838154811015156108ba57fe5b906000526020600020906003020160020160009054906101000a900463ffffffff1663ffffffff1661164390919063ffffffff16565b6004828154811015156108ff57fe5b906000526020600020906003020160020160006101000a81548163ffffffff021916908363ffffffff16021790555050565b6000600760009054906101000a900473ffffffffffffffffffffffffffffffffffffffff1673ffffffffffffffffffffffffffffffffffffffff1663e98b7f4d836040518263ffffffff167c01000000000000000000000000000000000000000000000000000000000281526004018082815260200191505061014060405180830381600087803b1580156109c557600080fd5b505af11580156109d9573d6000803e3d6000fd5b505050506040513d6101408110156109f057600080fd5b810190808051906020019092919080519060200190929190805190602001909291908051906020019092919080519060200190929190805190602001909291908051906020019092919080519060200190929190805190602001909291908051906020019092919050505090919293949596979850909192939495969750909192939495965090919293949550909192939450909192935090919250909150905080915050610ad583826040805190810160405280600581526020017f6b6974747900000000000000000000000000000000000000000000000000000081525061166d565b505050565b600481815481101515610ae957fe5b9060005260206000209060030201600091509050806000018054600181600116156101000203166002900480601f016020809104026020016040519081016040528092919081815260200182805460018160011615610100020316600290048015610b955780601f10610b6a57610100808354040283529160200191610b95565b820191906000526020600020905b815481529060010190602001808311610b7857829003601f168201915b5050505050908060010154908060020160009054906101000a900463ffffffff16908060020160049054906101000a900463ffffffff16908060020160089054906101000a900461ffff169080600201600a9054906101000a900461ffff16905086565b3373ffffffffffffffffffffffffffffffffffffffff166005600083815260200190815260200160002060009054906101000a900473ffffffffffffffffffffffffffffffffffffffff1673ffffffffffffffffffffffffffffffffffffffff161480610cc457503373ffffffffffffffffffffffffffffffffffffffff16600c600083815260200190815260200160002060009054906101000a900473ffffffffffffffffffffffffffffffffffffffff1673ffffffffffffffffffffffffffffffffffffffff16145b1515610ccf57600080fd5b610cda83838361191a565b505050565b6000610ce96111aa565b1515610cf457600080fd5b610cfc611181565b90508073ffffffffffffffffffffffffffffffffffffffff166108fc3073ffffffffffffffffffffffffffffffffffffffff16319081150290604051600060405180830381858888f19350505050158015610d5b573d6000803e3d6000fd5b5050565b606080600080600660008673ffffffffffffffffffffffffffffffffffffffff1673ffffffffffffffffffffffffffffffffffffffff16815260200190815260200160002054604051908082528060200260200182016040528015610dd35781602001602082028038833980820191505090505b50925060009150600090505b600480549050811015610e86578473ffffffffffffffffffffffffffffffffffffffff166005600083815260200190815260200160002060009054906101000a900473ffffffffffffffffffffffffffffffffffffffff1673ffffffffffffffffffffffffffffffffffffffff161415610e7957808383815181101515610e6257fe5b906020019060200201818152505081806001019250505b8080600101915050610ddf565b829350505050919050565b60056020528060005260406000206000915054906101000a900473ffffffffffffffffffffffffffffffffffffffff1681565b610ecc6111aa565b1515610ed757600080fd5b80600760006101000a81548173ffffffffffffffffffffffffffffffffffffffff021916908373ffffffffffffffffffffffffffffffffffffffff16021790555050565b60148281600482815481101515610f2e57fe5b906000526020600020906003020160020160009054906101000a900463ffffffff1663ffffffff1610151515610f6357600080fd5b836005600082815260200190815260200160002060009054906101000a900473ffffffffffffffffffffffffffffffffffffffff1673ffffffffffffffffffffffffffffffffffffffff163373ffffffffffffffffffffffffffffffffffffffff16141515610fd157600080fd5b83600486815481101515610fe157fe5b9060005260206000209060030201600101819055505050505050565b60006005600083815260200190815260200160002060009054906101000a900473ffffffffffffffffffffffffffffffffffffffff169050919050565b6000600660008373ffffffffffffffffffffffffffffffffffffffff1673ffffffffffffffffffffffffffffffffffffffff168152602001908152602001600020549050919050565b61108b6111aa565b151561109657600080fd5b600073ffffffffffffffffffffffffffffffffffffffff166000809054906101000a900473ffffffffffffffffffffffffffffffffffffffff1673ffffffffffffffffffffffffffffffffffffffff167f8be0079c531659141344cd1fd0a4f28419497f9722a3daafe3b4186f6b6457e060405160405180910390a360008060006101000a81548173ffffffffffffffffffffffffffffffffffffffff021916908373ffffffffffffffffffffffffffffffffffffffff160217905550565b600061116082611af8565b905060648181151561116e57fe5b068103905061117d8282611be6565b5050565b60008060009054906101000a900473ffffffffffffffffffffffffffffffffffffffff16905090565b60008060009054906101000a900473ffffffffffffffffffffffffffffffffffffffff1673ffffffffffffffffffffffffffffffffffffffff163373ffffffffffffffffffffffffffffffffffffffff1614905090565b6002838160048281548110151561121457fe5b906000526020600020906003020160020160009054906101000a900463ffffffff1663ffffffff161015151561124957600080fd5b846005600082815260200190815260200160002060009054906101000a900473ffffffffffffffffffffffffffffffffffffffff1673ffffffffffffffffffffffffffffffffffffffff163373ffffffffffffffffffffffffffffffffffffffff161415156112b757600080fd5b84846004888154811015156112c857fe5b906000526020600020906003020160000191906112e6929190612164565b50505050505050565b6112f76111aa565b151561130257600080fd5b8060088190555050565b6009543414151561131c57600080fd5b600160048281548110151561132d57fe5b906000526020600020906003020160020160009054906101000a900463ffffffff160360048281548110151561135f57fe5b906000526020600020906003020160020160006101000a81548163ffffffff021916908363ffffffff16021790555050565b6000806000846005600082815260200190815260200160002060009054906101000a900473ffffffffffffffffffffffffffffffffffffffff1673ffffffffffffffffffffffffffffffffffffffff163373ffffffffffffffffffffffffffffffffffffffff1614151561140457600080fd5b60048681548110151561141357fe5b9060005260206000209060030201935060048581548110151561143257fe5b9060005260206000209060030201925061144c6064611eb9565b9150600b54821115156115825761148360018560020160089054906101000a900461ffff1661ffff16611fbc90919063ffffffff16565b8460020160086101000a81548161ffff021916908361ffff1602179055506114cf60018560020160009054906101000a900463ffffffff1663ffffffff1661164390919063ffffffff16565b8460020160006101000a81548163ffffffff021916908363ffffffff16021790555061151b600184600201600a9054906101000a900461ffff1661ffff16611fbc90919063ffffffff16565b83600201600a6101000a81548161ffff021916908361ffff16021790555061157d8684600101546040805190810160405280600681526020017f7a6f6d626965000000000000000000000000000000000000000000000000000081525061166d565b61161c565b6115ac600185600201600a9054906101000a900461ffff1661ffff16611fbc90919063ffffffff16565b84600201600a6101000a81548161ffff021916908361ffff1602179055506115f460018460020160089054906101000a900461ffff1661ffff16611fbc90919063ffffffff16565b8360020160086101000a81548161ffff021916908361ffff16021790555061161b84611fe2565b5b505050505050565b61162c6111aa565b151561163757600080fd5b6116408161200c565b50565b60008082840190508363ffffffff168163ffffffff161015151561166357fe5b8091505092915050565b600080846005600082815260200190815260200160002060009054906101000a900473ffffffffffffffffffffffffffffffffffffffff1673ffffffffffffffffffffffffffffffffffffffff163373ffffffffffffffffffffffffffffffffffffffff161415156116de57600080fd5b6004868154811015156116ed57fe5b9060005260206000209060030201925061170683612106565b151561171157600080fd5b6002548581151561171e57fe5b06945060028584600101540181151561173357fe5b04915060405160200180807f6b6974747900000000000000000000000000000000000000000000000000000081525060050190506040516020818303038152906040526040518082805190602001908083835b6020831015156117ab5780518252602082019150602081019050602083039250611786565b6001836020036101000a038019825116818451168082178552505050505050905001915050604051809103902060001916846040516020018082805190602001908083835b60208310151561181557805182526020820191506020810190506020830392506117f0565b6001836020036101000a0380198251168184511680821785525050505050509050019150506040516020818303038152906040526040518082805190602001908083835b60208310151561187e5780518252602082019150602081019050602083039250611859565b6001836020036101000a03801982511681845116808217855250505050505090500191505060405180910390206000191614156118ca5760636064838115156118c357fe5b0683030191505b6119096040805190810160405280600681526020017f4e6f4e616d65000000000000000000000000000000000000000000000000000081525083611be6565b61191283611fe2565b505050505050565b61196d6001600660008573ffffffffffffffffffffffffffffffffffffffff1673ffffffffffffffffffffffffffffffffffffffff1681526020019081526020016000205461212d90919063ffffffff16565b600660008473ffffffffffffffffffffffffffffffffffffffff1673ffffffffffffffffffffffffffffffffffffffff16815260200190815260200160002081905550611a036001600660003373ffffffffffffffffffffffffffffffffffffffff1673ffffffffffffffffffffffffffffffffffffffff1681526020019081526020016000205461214b90919063ffffffff16565b600660003373ffffffffffffffffffffffffffffffffffffffff1673ffffffffffffffffffffffffffffffffffffffff16815260200190815260200160002081905550816005600083815260200190815260200160002060006101000a81548173ffffffffffffffffffffffffffffffffffffffff021916908373ffffffffffffffffffffffffffffffffffffffff160217905550808273ffffffffffffffffffffffffffffffffffffffff168473ffffffffffffffffffffffffffffffffffffffff167fddf252ad1be2c89b69c2b068fc378daa952ba7f163c4a11628f55a4df523b3ef60405160405180910390a4505050565b600080826040516020018082805190602001908083835b602083101515611b345780518252602082019150602081019050602083039250611b0f565b6001836020036101000a0380198251168184511680821785525050505050509050019150506040516020818303038152906040526040518082805190602001908083835b602083101515611b9d5780518252602082019150602081019050602083039250611b78565b6001836020036101000a038019825116818451168082178552505050505050905001915050604051809103902060019004905060025481811515611bdd57fe5b06915050919050565b60006001600460c060405190810160405280868152602001858152602001600163ffffffff168152602001600354420163ffffffff168152602001600061ffff168152602001600061ffff16815250908060018154018082558091505090600182039060005260206000209060030201600090919290919091506000820151816000019080519060200190611c7c9291906121e4565b506020820151816001015560408201518160020160006101000a81548163ffffffff021916908363ffffffff16021790555060608201518160020160046101000a81548163ffffffff021916908363ffffffff16021790555060808201518160020160086101000a81548161ffff021916908361ffff16021790555060a082015181600201600a6101000a81548161ffff021916908361ffff1602179055505050039050336005600083815260200190815260200160002060006101000a81548173ffffffffffffffffffffffffffffffffffffffff021916908373ffffffffffffffffffffffffffffffffffffffff160217905550611dc56001600660003373ffffffffffffffffffffffffffffffffffffffff1673ffffffffffffffffffffffffffffffffffffffff1681526020019081526020016000205461212d90919063ffffffff16565b600660003373ffffffffffffffffffffffffffffffffffffffff1673ffffffffffffffffffffffffffffffffffffffff168152602001908152602001600020819055507f88f026aacbbecc90c18411df4b1185fd8d9be2470f1962f192bf84a27d0704b78184846040518084815260200180602001838152602001828103825284818151815260200191508051906020019080838360005b83811015611e78578082015181840152602081019050611e5d565b50505050905090810190601f168015611ea55780820380516001836020036101000a031916815260200191505b5094505050505060405180910390a1505050565b6000611ed16001600a5461212d90919063ffffffff16565b600a81905550814233600a54604051602001808481526020018373ffffffffffffffffffffffffffffffffffffffff1673ffffffffffffffffffffffffffffffffffffffff166c0100000000000000000000000002815260140182815260200193505050506040516020818303038152906040526040518082805190602001908083835b602083101515611f7a5780518252602082019150602081019050602083039250611f55565b6001836020036101000a038019825116818451168082178552505050505050905001915050604051809103902060019004811515611fb457fe5b069050919050565b60008082840190508361ffff168161ffff1610151515611fd857fe5b8091505092915050565b60035442018160020160046101000a81548163ffffffff021916908363ffffffff16021790555050565b600073ffffffffffffffffffffffffffffffffffffffff168173ffffffffffffffffffffffffffffffffffffffff161415151561204857600080fd5b8073ffffffffffffffffffffffffffffffffffffffff166000809054906101000a900473ffffffffffffffffffffffffffffffffffffffff1673ffffffffffffffffffffffffffffffffffffffff167f8be0079c531659141344cd1fd0a4f28419497f9722a3daafe3b4186f6b6457e060405160405180910390a3806000806101000a81548173ffffffffffffffffffffffffffffffffffffffff021916908373ffffffffffffffffffffffffffffffffffffffff16021790555050565b6000428260020160049054906101000a900463ffffffff1663ffffffff1611159050919050565b600080828401905083811015151561214157fe5b8091505092915050565b600082821115151561215957fe5b818303905092915050565b828054600181600116156101000203166002900490600052602060002090601f016020900481019282601f106121a557803560ff19168380011785556121d3565b828001600101855582156121d3579182015b828111156121d25782358255916020019190600101906121b7565b5b5090506121e09190612264565b5090565b828054600181600116156101000203166002900490600052602060002090601f016020900481019282601f1061222557805160ff1916838001178555612253565b82800160010185558215612253579182015b82811115612252578251825591602001919060010190612237565b5b5090506122609190612264565b5090565b61228691905b8082111561228257600081600090555060010161226a565b5090565b905600a165627a7a72305820d1407ed9e562ef786d28f5b5a6a0930877e34e24cdfdb7f707c672c1536090480029",
  "source": "pragma solidity ^0.4.25;\r\n\r\nimport \"./zombieattack.sol\";\r\nimport \"./erc721.sol\";\r\nimport \"./safemath.sol\";\r\n\r\ncontract ZombieOwnership is ZombieAttack, ERC721 {\r\n\r\n  using SafeMath for uint256;\r\n\r\n  mapping (uint => address) zombieApprovals;\r\n\r\n  function balanceOf(address _owner) external view returns (uint256) {\r\n    return ownerZombieCount[_owner];\r\n  }\r\n\r\n  function ownerOf(uint256 _tokenId) external view returns (address) {\r\n    return zombieToOwner[_tokenId];\r\n  }\r\n\r\n  function _transfer(address _from, address _to, uint256 _tokenId) private {\r\n    ownerZombieCount[_to] = ownerZombieCount[_to].add(1);\r\n    ownerZombieCount[msg.sender] = ownerZombieCount[msg.sender].sub(1);\r\n    zombieToOwner[_tokenId] = _to;\r\n    emit Transfer(_from, _to, _tokenId);\r\n  }\r\n\r\n  function transferFrom(address _from, address _to, uint256 _tokenId) external payable {\r\n      require (zombieToOwner[_tokenId] == msg.sender || zombieApprovals[_tokenId] == msg.sender);\r\n      _transfer(_from, _to, _tokenId);\r\n    }\r\n\r\n  function approve(address _approved, uint256 _tokenId) external payable onlyOwnerOf(_tokenId) {\r\n      zombieApprovals[_tokenId] = _approved;\r\n      emit Approval(msg.sender, _approved, _tokenId);\r\n    }\r\n\r\n}\r\n",
  "sourcePath": "E:\\ADV_Mid_Final\\contracts\\zombieownership.sol",
  "compiler": {
    "name": "solc",
    "version": "0.4.25+commit.59dbf8f1.Emscripten.clang"
  },
  "schemaVersion": "3.4.16",
  "updatedAt": "2024-03-18T00:07:55.170Z",
  "networkType": "ethereum",
  "devdoc": {
    "methods": {
      "isOwner()": {
        "return": "true if `msg.sender` is the owner of the contract.\r"
      },
      "owner()": {
        "return": "the address of the owner.\r"
      },
      "renounceOwnership()": {
        "details": "Allows the current owner to relinquish control of the contract.\r"
      },
      "transferOwnership(address)": {
        "details": "Allows the current owner to transfer control of the contract to a newOwner.\r",
        "params": {
          "newOwner": "The address to transfer ownership to.\r"
        }
      }
    }
  },
  "userdoc": {
    "methods": {
      "renounceOwnership()": {
        "notice": "Renouncing to ownership will leave the contract without an owner.\r It will not be possible to call the functions with the `onlyOwner`\r modifier anymore.\r"
      }
    }
  }
}